{
  "contractName": "BlueRuble",
  "abi": [
    {
      "constant": true,
      "inputs": [],
      "name": "name",
      "outputs": [
        {
          "name": "",
          "type": "string"
        }
      ],
      "payable": false,
      "stateMutability": "view",
      "type": "function"
    },
    {
      "constant": false,
      "inputs": [
        {
          "name": "newMinPayement",
          "type": "uint256"
        }
      ],
      "name": "changeMinPayement",
      "outputs": [],
      "payable": false,
      "stateMutability": "nonpayable",
      "type": "function"
    },
    {
      "constant": true,
      "inputs": [],
      "name": "decimals",
      "outputs": [
        {
          "name": "",
          "type": "uint256"
        }
      ],
      "payable": false,
      "stateMutability": "view",
      "type": "function"
    },
    {
      "constant": true,
      "inputs": [
        {
          "name": "",
          "type": "address"
        }
      ],
      "name": "phoneByAddress",
      "outputs": [
        {
          "name": "",
          "type": "uint256"
        }
      ],
      "payable": false,
      "stateMutability": "view",
      "type": "function"
    },
    {
      "constant": false,
      "inputs": [
        {
          "name": "_phone",
          "type": "uint256"
        },
        {
          "name": "_role",
          "type": "uint8"
        }
      ],
      "name": "sendRegRequest",
      "outputs": [
        {
          "name": "",
          "type": "uint256"
        }
      ],
      "payable": false,
      "stateMutability": "nonpayable",
      "type": "function"
    },
    {
      "constant": true,
      "inputs": [
        {
          "name": "",
          "type": "uint256"
        }
      ],
      "name": "isPhoneRegistered",
      "outputs": [
        {
          "name": "",
          "type": "bool"
        }
      ],
      "payable": false,
      "stateMutability": "view",
      "type": "function"
    },
    {
      "constant": false,
      "inputs": [
        {
          "name": "client",
          "type": "address"
        },
        {
          "name": "_role",
          "type": "uint8"
        }
      ],
      "name": "setRole",
      "outputs": [],
      "payable": false,
      "stateMutability": "nonpayable",
      "type": "function"
    },
    {
      "constant": true,
      "inputs": [],
      "name": "minPayement",
      "outputs": [
        {
          "name": "",
          "type": "uint256"
        }
      ],
      "payable": false,
      "stateMutability": "view",
      "type": "function"
    },
    {
      "constant": false,
      "inputs": [],
      "name": "renounceOwnership",
      "outputs": [],
      "payable": false,
      "stateMutability": "nonpayable",
      "type": "function"
    },
    {
      "constant": true,
      "inputs": [],
      "name": "pricePerToken",
      "outputs": [
        {
          "name": "",
          "type": "uint256"
        }
      ],
      "payable": false,
      "stateMutability": "view",
      "type": "function"
    },
    {
      "constant": true,
      "inputs": [
        {
          "name": "",
          "type": "uint256"
        }
      ],
      "name": "requests",
      "outputs": [
        {
          "name": "",
          "type": "address"
        }
      ],
      "payable": false,
      "stateMutability": "view",
      "type": "function"
    },
    {
      "constant": true,
      "inputs": [],
      "name": "owner",
      "outputs": [
        {
          "name": "",
          "type": "address"
        }
      ],
      "payable": false,
      "stateMutability": "view",
      "type": "function"
    },
    {
      "constant": true,
      "inputs": [],
      "name": "symbol",
      "outputs": [
        {
          "name": "",
          "type": "string"
        }
      ],
      "payable": false,
      "stateMutability": "view",
      "type": "function"
    },
    {
      "constant": true,
      "inputs": [
        {
          "name": "",
          "type": "address"
        }
      ],
      "name": "roles",
      "outputs": [
        {
          "name": "",
          "type": "uint8"
        }
      ],
      "payable": false,
      "stateMutability": "view",
      "type": "function"
    },
    {
      "constant": true,
      "inputs": [
        {
          "name": "client",
          "type": "address"
        }
      ],
      "name": "checkRole",
      "outputs": [
        {
          "name": "",
          "type": "uint8"
        }
      ],
      "payable": false,
      "stateMutability": "view",
      "type": "function"
    },
    {
      "constant": false,
      "inputs": [
        {
          "name": "newPrice",
          "type": "uint256"
        }
      ],
      "name": "changePrice",
      "outputs": [],
      "payable": false,
      "stateMutability": "nonpayable",
      "type": "function"
    },
    {
      "constant": false,
      "inputs": [
        {
          "name": "num",
          "type": "uint256"
        }
      ],
      "name": "applyRegRequest",
      "outputs": [],
      "payable": false,
      "stateMutability": "nonpayable",
      "type": "function"
    },
    {
      "constant": true,
      "inputs": [],
      "name": "numberOfRequests",
      "outputs": [
        {
          "name": "",
          "type": "uint256"
        }
      ],
      "payable": false,
      "stateMutability": "view",
      "type": "function"
    },
    {
      "constant": false,
      "inputs": [
        {
          "name": "_newOwner",
          "type": "address"
        }
      ],
      "name": "transferOwnership",
      "outputs": [],
      "payable": false,
      "stateMutability": "nonpayable",
      "type": "function"
    },
    {
      "payable": true,
      "stateMutability": "payable",
      "type": "fallback"
    },
    {
      "anonymous": false,
      "inputs": [
        {
          "indexed": true,
          "name": "to",
          "type": "address"
        },
        {
          "indexed": false,
          "name": "amount",
          "type": "uint256"
        }
      ],
      "name": "Mint",
      "type": "event"
    },
    {
      "anonymous": false,
      "inputs": [
        {
          "indexed": true,
          "name": "previousOwner",
          "type": "address"
        }
      ],
      "name": "OwnershipRenounced",
      "type": "event"
    },
    {
      "anonymous": false,
      "inputs": [
        {
          "indexed": true,
          "name": "previousOwner",
          "type": "address"
        },
        {
          "indexed": true,
          "name": "newOwner",
          "type": "address"
        }
      ],
      "name": "OwnershipTransferred",
      "type": "event"
    },
    {
      "anonymous": false,
      "inputs": [
        {
          "indexed": true,
          "name": "owner",
          "type": "address"
        },
        {
          "indexed": true,
          "name": "spender",
          "type": "address"
        },
        {
          "indexed": false,
          "name": "value",
          "type": "uint256"
        }
      ],
      "name": "Approval",
      "type": "event"
    },
    {
      "anonymous": false,
      "inputs": [
        {
          "indexed": true,
          "name": "from",
          "type": "address"
        },
        {
          "indexed": true,
          "name": "to",
          "type": "address"
        },
        {
          "indexed": false,
          "name": "value",
          "type": "uint256"
        }
      ],
      "name": "Transfer",
      "type": "event"
    },
    {
      "constant": true,
      "inputs": [],
      "name": "totalSupply",
      "outputs": [
        {
          "name": "",
          "type": "uint256"
        }
      ],
      "payable": false,
      "stateMutability": "view",
      "type": "function"
    },
    {
      "constant": true,
      "inputs": [
        {
          "name": "_owner",
          "type": "address"
        }
      ],
      "name": "balanceOf",
      "outputs": [
        {
          "name": "",
          "type": "uint256"
        }
      ],
      "payable": false,
      "stateMutability": "view",
      "type": "function"
    },
    {
      "constant": true,
      "inputs": [
        {
          "name": "_owner",
          "type": "address"
        },
        {
          "name": "_spender",
          "type": "address"
        }
      ],
      "name": "allowance",
      "outputs": [
        {
          "name": "",
          "type": "uint256"
        }
      ],
      "payable": false,
      "stateMutability": "view",
      "type": "function"
    },
    {
      "constant": false,
      "inputs": [
        {
          "name": "_to",
          "type": "address"
        },
        {
          "name": "_value",
          "type": "uint256"
        }
      ],
      "name": "transfer",
      "outputs": [
        {
          "name": "",
          "type": "bool"
        }
      ],
      "payable": false,
      "stateMutability": "nonpayable",
      "type": "function"
    },
    {
      "constant": false,
      "inputs": [
        {
          "name": "_spender",
          "type": "address"
        },
        {
          "name": "_value",
          "type": "uint256"
        }
      ],
      "name": "approve",
      "outputs": [
        {
          "name": "",
          "type": "bool"
        }
      ],
      "payable": false,
      "stateMutability": "nonpayable",
      "type": "function"
    },
    {
      "constant": false,
      "inputs": [
        {
          "name": "_from",
          "type": "address"
        },
        {
          "name": "_to",
          "type": "address"
        },
        {
          "name": "_value",
          "type": "uint256"
        }
      ],
      "name": "transferFrom",
      "outputs": [
        {
          "name": "",
          "type": "bool"
        }
      ],
      "payable": false,
      "stateMutability": "nonpayable",
      "type": "function"
    },
    {
      "constant": false,
      "inputs": [
        {
          "name": "_to",
          "type": "address"
        },
        {
          "name": "_amount",
          "type": "uint256"
        }
      ],
      "name": "mint",
      "outputs": [
        {
          "name": "",
          "type": "bool"
        }
      ],
      "payable": false,
      "stateMutability": "nonpayable",
      "type": "function"
    }
  ],
  "bytecode": "0x60c0604052600a60808190527f424c5545205255424c450000000000000000000000000000000000000000000060a090815261003e91600891906100ad565b506040805180820190915260048082527f424c5552000000000000000000000000000000000000000000000000000000006020909201918252610083916009916100ad565b506012600a5560008054600160a060020a0319163317815560016002819055600355600755610148565b828054600181600116156101000203166002900490600052602060002090601f016020900481019282601f106100ee57805160ff191683800117855561011b565b8280016001018555821561011b579182015b8281111561011b578251825591602001919060010190610100565b5061012792915061012b565b5090565b61014591905b808211156101275760008155600101610131565b90565b610fc680620001586000396000f3006080604052600436106101535763ffffffff7c010000000000000000000000000000000000000000000000000000000060003504166306fdde0381146101d8578063095ea7b3146102625780630cc28c761461029a57806318160ddd146102b457806323b872dd146102db578063313ce5671461030557806340c10f191461031a57806342d670d51461033e57806344370f601461035f5780634debcb661461037d578063571c3e6014610395578063645533c5146103bc57806370a08231146103d1578063715018a6146103f25780637b1b1de61461040757806381d12c581461041c5780638da5cb5b1461045057806395d89b4114610465578063993746421461047a578063a0d7823e146104bf578063a2b40d19146104e0578063a9059cbb146104f8578063b295e6951461051c578063cf56997714610534578063dd62ed3e14610549578063f2fde38b14610570575b60013360009081526001602052604090205460ff16600481111561017357fe5b1461017d57600080fd5b61019b336101966002543461059190919063ffffffff16565b6105a6565b60008054604051600160a060020a03909116913480156108fc02929091818181858888f193505050501580156101d5573d6000803e3d6000fd5b50005b3480156101e457600080fd5b506101ed610652565b6040805160208082528351818301528351919283929083019185019080838360005b8381101561022757818101518382015260200161020f565b50505050905090810190601f1680156102545780820380516001836020036101000a031916815260200191505b509250505060405180910390f35b34801561026e57600080fd5b50610286600160a060020a03600435166024356106e0565b604080519115158252519081900360200190f35b3480156102a657600080fd5b506102b2600435610746565b005b3480156102c057600080fd5b506102c961076e565b60408051918252519081900360200190f35b3480156102e757600080fd5b50610286600160a060020a0360043581169060243516604435610774565b34801561031157600080fd5b506102c96108eb565b34801561032657600080fd5b50610286600160a060020a03600435166024356108f1565b34801561034a57600080fd5b506102c9600160a060020a036004351661095b565b34801561036b57600080fd5b506102c960043560ff6024351661096d565b34801561038957600080fd5b50610286600435610a77565b3480156103a157600080fd5b506102b2600160a060020a036004351660ff60243516610a8c565b3480156103c857600080fd5b506102c9610ade565b3480156103dd57600080fd5b506102c9600160a060020a0360043516610ae4565b3480156103fe57600080fd5b506102b2610aff565b34801561041357600080fd5b506102c9610b6b565b34801561042857600080fd5b50610434600435610b71565b60408051600160a060020a039092168252519081900360200190f35b34801561045c57600080fd5b50610434610b8c565b34801561047157600080fd5b506101ed610b9b565b34801561048657600080fd5b5061049b600160a060020a0360043516610bf6565b604051808260048111156104ab57fe5b60ff16815260200191505060405180910390f35b3480156104cb57600080fd5b5061049b600160a060020a0360043516610c0b565b3480156104ec57600080fd5b506102b2600435610c29565b34801561050457600080fd5b50610286600160a060020a0360043516602435610c51565b34801561052857600080fd5b506102b2600435610d82565b34801561054057600080fd5b506102c9610ea4565b34801561055557600080fd5b506102c9600160a060020a0360043581169060243516610eaa565b34801561057c57600080fd5b506102b2600160a060020a0360043516610ed5565b6000818381151561059e57fe5b049392505050565b600160a060020a03821615156105bb57600080fd5b600d546105ce908263ffffffff610ef816565b600d55600160a060020a0382166000908152600b60205260409020546105fa908263ffffffff610ef816565b600160a060020a0383166000818152600b602090815260408083209490945583518581529351929391927fddf252ad1be2c89b69c2b068fc378daa952ba7f163c4a11628f55a4df523b3ef9281900390910190a35050565b6008805460408051602060026001851615610100026000190190941693909304601f810184900484028201840190925281815292918301828280156106d85780601f106106ad576101008083540402835291602001916106d8565b820191906000526020600020905b8154815290600101906020018083116106bb57829003601f168201915b505050505081565b336000818152600c60209081526040808320600160a060020a038716808552908352818420869055815186815291519394909390927f8c5be1e5ebec7d5bd14f71427d1e84f3dd0314c0f7b2291e5b200ac8c7c3b925928290030190a350600192915050565b600054600160a060020a0316331461075d57600080fd5b80151561076957600080fd5b600355565b600d5490565b600160a060020a0383166000908152600b602052604081205482111561079957600080fd5b600160a060020a0384166000908152600c602090815260408083203384529091529020548211156107c957600080fd5b600160a060020a03831615156107de57600080fd5b600160a060020a0384166000908152600b6020526040902054610807908363ffffffff610f0b16565b600160a060020a038086166000908152600b6020526040808220939093559085168152205461083c908363ffffffff610ef816565b600160a060020a038085166000908152600b60209081526040808320949094559187168152600c82528281203382529091522054610880908363ffffffff610f0b16565b600160a060020a038086166000818152600c6020908152604080832033845282529182902094909455805186815290519287169391927fddf252ad1be2c89b69c2b068fc378daa952ba7f163c4a11628f55a4df523b3ef929181900390910190a35060019392505050565b600a5481565b60008054600160a060020a0316331461090957600080fd5b61091383836105a6565b604080518381529051600160a060020a038516917f0f6798a560793a54c3bcfe86a93cde1e73087d944c0ea20544137d4121396885919081900360200190a250600192915050565b60046020526000908152604090205481565b6000803360009081526001602052604090205460ff16600481111561098e57fe5b1461099857600080fd5b60008381526005602052604090205460ff16156109b457600080fd5b60038260048111156109c257fe5b14806109d9575060048260048111156109d757fe5b145b15156109e457600080fd5b60008381526005602090815260408083208054600160ff1991821681179092553385529281905292208054859391921690836004811115610a2157fe5b021790555050600780546000908152600660209081526040808320805473ffffffffffffffffffffffffffffffffffffffff19163390811790915583526004909152902083905580546001810190915592915050565b60056020526000908152604090205460ff1681565b600054600160a060020a03163314610aa357600080fd5b600160a060020a03821660009081526001602081905260409091208054839260ff1990911690836004811115610ad557fe5b02179055505050565b60035481565b600160a060020a03166000908152600b602052604090205490565b600054600160a060020a03163314610b1657600080fd5b60008054604051600160a060020a03909116917ff8df31144d9c2f0f6b59d69b8b98abd5459d07f2742c4df920b25aae33c6482091a26000805473ffffffffffffffffffffffffffffffffffffffff19169055565b60025481565b600660205260009081526040902054600160a060020a031681565b600054600160a060020a031681565b6009805460408051602060026001851615610100026000190190941693909304601f810184900484028201840190925281815292918301828280156106d85780601f106106ad576101008083540402835291602001916106d8565b60016020526000908152604090205460ff1681565b600160a060020a031660009081526001602052604090205460ff1690565b600054600160a060020a03163314610c4057600080fd5b801515610c4c57600080fd5b600255565b336000908152600b6020526040812054821115610c6d57600080fd5b600160a060020a0383161515610c8257600080fd5b600160a060020a03831660009081526001602052604090205460ff166004811115610ca957fe5b3360009081526001602052604090205460ff166004811115610cc757fe5b1415610cd257600080fd5b336000908152600b6020526040902054610cf2908363ffffffff610f0b16565b336000908152600b602052604080822092909255600160a060020a03851681522054610d24908363ffffffff610ef816565b600160a060020a0384166000818152600b60209081526040918290209390935580518581529051919233927fddf252ad1be2c89b69c2b068fc378daa952ba7f163c4a11628f55a4df523b3ef9281900390910190a350600192915050565b60008054600160a060020a03163314610d9a57600080fd5b50600081815260066020526040902054600160a060020a03166003600160a060020a03821660009081526001602052604090205460ff166004811115610ddc57fe5b1480610e0e57506004600160a060020a03821660009081526001602052604090205460ff166004811115610e0c57fe5b145b1515610e1957600080fd5b6003600160a060020a03821660009081526001602052604090205460ff166004811115610e4257fe5b1415610e7357600160a060020a0381166000908152600160208190526040909120805460ff19169091179055610ea0565b600160a060020a0381166000908152600160208190526040909120805460029260ff199091169083610ad5565b5050565b60075481565b600160a060020a039182166000908152600c6020908152604080832093909416825291909152205490565b600054600160a060020a03163314610eec57600080fd5b610ef581610f1d565b50565b81810182811015610f0557fe5b92915050565b600082821115610f1757fe5b50900390565b600160a060020a0381161515610f3257600080fd5b60008054604051600160a060020a03808516939216917f8be0079c531659141344cd1fd0a4f28419497f9722a3daafe3b4186f6b6457e091a36000805473ffffffffffffffffffffffffffffffffffffffff1916600160a060020a03929092169190911790555600a165627a7a72305820bd5fc5bdd5794c5b7d5d6916c6bd368ba622b43f54237767581c5b6502a093b30029",
  "source": "pragma solidity ^0.4.24;\n\nimport 'openzeppelin-solidity/contracts/token/ERC20/ERC20.sol';\nimport 'openzeppelin-solidity/contracts/math/SafeMath.sol';\n\nimport './RoleControl.sol';\n\ncontract BlueRuble is ERC20, RoleControl {\n  using SafeMath for uint256;\n  string public name = \"BLUE RUBLE\";\n  string public symbol = \"BLUR\";\n  uint public decimals = 18;\n\n  mapping (address => uint256) private balances;\n\n  mapping (address => mapping (address => uint256)) private allowed;\n\n  uint256 private totalSupply_;\n\n  /**\n  * @dev Total number of tokens in existence\n  */\n  function totalSupply() public view returns (uint256) {\n    return totalSupply_;\n  }\n\n  /**\n  * @dev Gets the balance of the specified address.\n  * @param _owner The address to query the the balance of.\n  * @return An uint256 representing the amount owned by the passed address.\n  */\n  function balanceOf(address _owner) public view returns (uint256) {\n    return balances[_owner];\n  }\n\n  /**\n   * @dev Function to check the amount of tokens that an owner allowed to a spender.\n   * @param _owner address The address which owns the funds.\n   * @param _spender address The address which will spend the funds.\n   * @return A uint256 specifying the amount of tokens still available for the spender.\n   */\n  function allowance(\n    address _owner,\n    address _spender\n   )\n    public\n    view\n    returns (uint256)\n  {\n    return allowed[_owner][_spender];\n  }\n\n  /**\n  * @dev Transfer token for a specified address\n  * @param _to The address to transfer to.\n  * @param _value The amount to be transferred.\n  */\n  function transfer(address _to, uint256 _value) public returns (bool) {\n    require(_value <= balances[msg.sender]);\n    require(_to != address(0));\n    \n    require(roles[msg.sender] != roles[_to]);// !!! токены нельзя переслать между пользователями или торгашами\n\n    balances[msg.sender] = balances[msg.sender].sub(_value);\n    balances[_to] = balances[_to].add(_value);\n    emit Transfer(msg.sender, _to, _value);\n    return true;\n  }\n\n  /**\n   * @dev Approve the passed address to spend the specified amount of tokens on behalf of msg.sender.\n   * Beware that changing an allowance with this method brings the risk that someone may use both the old\n   * and the new allowance by unfortunate transaction ordering. One possible solution to mitigate this\n   * race condition is to first reduce the spender's allowance to 0 and set the desired value afterwards:\n   * https://github.com/ethereum/EIPs/issues/20#issuecomment-263524729\n   * @param _spender The address which will spend the funds.\n   * @param _value The amount of tokens to be spent.\n   */\n  function approve(address _spender, uint256 _value) public returns (bool) {\n    allowed[msg.sender][_spender] = _value;\n    emit Approval(msg.sender, _spender, _value);\n    return true;\n  }\n\n  /**\n   * @dev Transfer tokens from one address to another\n   * @param _from address The address which you want to send tokens from\n   * @param _to address The address which you want to transfer to\n   * @param _value uint256 the amount of tokens to be transferred\n   */\n  function transferFrom(\n    address _from,\n    address _to,\n    uint256 _value\n  )\n    public\n    returns (bool)\n  {\n    require(_value <= balances[_from]);\n    require(_value <= allowed[_from][msg.sender]);\n    require(_to != address(0));\n\n    balances[_from] = balances[_from].sub(_value);\n    balances[_to] = balances[_to].add(_value);\n    allowed[_from][msg.sender] = allowed[_from][msg.sender].sub(_value);\n    emit Transfer(_from, _to, _value);\n    return true;\n  }\n\n  /**\n   * @dev Internal function that mints an amount of the token and assigns it to\n   * an account. This encapsulates the modification of balances such that the\n   * proper events are emitted.\n   * @param _account The account that will receive the created tokens.\n   * @param _amount The amount that will be created.\n   */\n  function _mint(address _account, uint256 _amount) internal {\n    require(_account != 0);\n    totalSupply_ = totalSupply_.add(_amount);\n    balances[_account] = balances[_account].add(_amount);\n    emit Transfer(address(0), _account, _amount);\n  }\n\n  /**\n   * @dev Internal function that burns an amount of the token of a given\n   * account.\n   * @param _account The account whose tokens will be burnt.\n   * @param _amount The amount that will be burnt.\n   */\n  function _burn(address _account, uint256 _amount) internal {\n    require(_account != 0);\n    require(_amount <= balances[_account]);\n\n    totalSupply_ = totalSupply_.sub(_amount);\n    balances[_account] = balances[_account].sub(_amount);\n    emit Transfer(_account, address(0), _amount);\n  }\n\n  /**\n   * @dev Internal function that burns an amount of the token of a given\n   * account, deducting from the sender's allowance for said account. Uses the\n   * internal _burn function.\n   * @param _account The account whose tokens will be burnt.\n   * @param _amount The amount that will be burnt.\n   */\n  function _burnFrom(address _account, uint256 _amount) internal {\n    require(_amount <= allowed[_account][msg.sender]);\n\n    // Should https://github.com/OpenZeppelin/zeppelin-solidity/issues/707 be accepted,\n    // this function needs to emit an event with the updated approval.\n    allowed[_account][msg.sender] = allowed[_account][msg.sender].sub(_amount);\n    _burn(_account, _amount);\n  }\n  \n  event Mint(address indexed to, uint256 amount);\n\n\n  modifier hasMintPermission() {\n    require(msg.sender == owner);\n    _;\n  }\n\n  function () public payable {\n      require(roles[msg.sender] == Role.SELLER);\n      _mint(msg.sender, (msg.value).div(pricePerToken));\n      owner.transfer(msg.value);\n      \n  }\n\n  function mint(\n    address _to,\n    uint256 _amount\n  )\n    public\n    hasMintPermission\n    returns (bool)\n  {\n    _mint(_to, _amount);\n    emit Mint(_to, _amount);\n    return true;\n  }\n}\n",
  "sourcePath": "/Users/work/workspace/blur/contracts/BlueRuble.sol",
  "compiler": {
    "name": "solc",
    "version": "0.4.24+commit.e67f0147.Emscripten.clang"
  },
  "schemaVersion": "2.0.1",
  "updatedAt": "2018-08-23T20:50:26.375Z"
}