{
  "contractName": "RoleControl",
  "abi": [
    {
      "constant": true,
      "inputs": [
        {
          "name": "",
          "type": "address"
        }
      ],
      "name": "phoneByAddress",
      "outputs": [
        {
          "name": "",
          "type": "uint256"
        }
      ],
      "payable": false,
      "stateMutability": "view",
      "type": "function"
    },
    {
      "constant": true,
      "inputs": [
        {
          "name": "",
          "type": "uint256"
        }
      ],
      "name": "isPhoneRegistered",
      "outputs": [
        {
          "name": "",
          "type": "bool"
        }
      ],
      "payable": false,
      "stateMutability": "view",
      "type": "function"
    },
    {
      "constant": true,
      "inputs": [],
      "name": "minPayement",
      "outputs": [
        {
          "name": "",
          "type": "uint256"
        }
      ],
      "payable": false,
      "stateMutability": "view",
      "type": "function"
    },
    {
      "constant": false,
      "inputs": [],
      "name": "renounceOwnership",
      "outputs": [],
      "payable": false,
      "stateMutability": "nonpayable",
      "type": "function"
    },
    {
      "constant": true,
      "inputs": [],
      "name": "pricePerToken",
      "outputs": [
        {
          "name": "",
          "type": "uint256"
        }
      ],
      "payable": false,
      "stateMutability": "view",
      "type": "function"
    },
    {
      "constant": true,
      "inputs": [
        {
          "name": "",
          "type": "uint256"
        }
      ],
      "name": "requests",
      "outputs": [
        {
          "name": "",
          "type": "address"
        }
      ],
      "payable": false,
      "stateMutability": "view",
      "type": "function"
    },
    {
      "constant": true,
      "inputs": [],
      "name": "owner",
      "outputs": [
        {
          "name": "",
          "type": "address"
        }
      ],
      "payable": false,
      "stateMutability": "view",
      "type": "function"
    },
    {
      "constant": true,
      "inputs": [
        {
          "name": "",
          "type": "address"
        }
      ],
      "name": "roles",
      "outputs": [
        {
          "name": "",
          "type": "uint8"
        }
      ],
      "payable": false,
      "stateMutability": "view",
      "type": "function"
    },
    {
      "constant": true,
      "inputs": [],
      "name": "numberOfRequests",
      "outputs": [
        {
          "name": "",
          "type": "uint256"
        }
      ],
      "payable": false,
      "stateMutability": "view",
      "type": "function"
    },
    {
      "constant": false,
      "inputs": [
        {
          "name": "_newOwner",
          "type": "address"
        }
      ],
      "name": "transferOwnership",
      "outputs": [],
      "payable": false,
      "stateMutability": "nonpayable",
      "type": "function"
    },
    {
      "inputs": [],
      "payable": false,
      "stateMutability": "nonpayable",
      "type": "constructor"
    },
    {
      "anonymous": false,
      "inputs": [
        {
          "indexed": true,
          "name": "previousOwner",
          "type": "address"
        }
      ],
      "name": "OwnershipRenounced",
      "type": "event"
    },
    {
      "anonymous": false,
      "inputs": [
        {
          "indexed": true,
          "name": "previousOwner",
          "type": "address"
        },
        {
          "indexed": true,
          "name": "newOwner",
          "type": "address"
        }
      ],
      "name": "OwnershipTransferred",
      "type": "event"
    },
    {
      "constant": false,
      "inputs": [
        {
          "name": "_phone",
          "type": "uint256"
        },
        {
          "name": "_role",
          "type": "uint8"
        }
      ],
      "name": "sendRegRequest",
      "outputs": [
        {
          "name": "",
          "type": "uint256"
        }
      ],
      "payable": false,
      "stateMutability": "nonpayable",
      "type": "function"
    },
    {
      "constant": false,
      "inputs": [
        {
          "name": "num",
          "type": "uint256"
        }
      ],
      "name": "applyRegRequest",
      "outputs": [],
      "payable": false,
      "stateMutability": "nonpayable",
      "type": "function"
    },
    {
      "constant": false,
      "inputs": [
        {
          "name": "client",
          "type": "address"
        },
        {
          "name": "_role",
          "type": "uint8"
        }
      ],
      "name": "setRole",
      "outputs": [],
      "payable": false,
      "stateMutability": "nonpayable",
      "type": "function"
    },
    {
      "constant": true,
      "inputs": [
        {
          "name": "client",
          "type": "address"
        }
      ],
      "name": "checkRole",
      "outputs": [
        {
          "name": "",
          "type": "uint8"
        }
      ],
      "payable": false,
      "stateMutability": "view",
      "type": "function"
    },
    {
      "constant": false,
      "inputs": [
        {
          "name": "newPrice",
          "type": "uint256"
        }
      ],
      "name": "changePrice",
      "outputs": [],
      "payable": false,
      "stateMutability": "nonpayable",
      "type": "function"
    },
    {
      "constant": false,
      "inputs": [
        {
          "name": "newMinPayement",
          "type": "uint256"
        }
      ],
      "name": "changeMinPayement",
      "outputs": [],
      "payable": false,
      "stateMutability": "nonpayable",
      "type": "function"
    }
  ],
  "bytecode": "0x608060405234801561001057600080fd5b5060008054600160a060020a03191633178155600160028190556003556007556107988061003f6000396000f3006080604052600436106100e55763ffffffff7c01000000000000000000000000000000000000000000000000000000006000350416630cc28c7681146100ea57806342d670d51461010457806344370f60146101375780634debcb6614610155578063571c3e6014610181578063645533c5146101a8578063715018a6146101bd5780637b1b1de6146101d257806381d12c58146101e75780638da5cb5b1461021b5780639937464214610230578063a0d7823e14610275578063a2b40d1914610296578063b295e695146102ae578063cf569977146102c6578063f2fde38b146102db575b600080fd5b3480156100f657600080fd5b506101026004356102fc565b005b34801561011057600080fd5b50610125600160a060020a0360043516610324565b60408051918252519081900360200190f35b34801561014357600080fd5b5061012560043560ff60243516610336565b34801561016157600080fd5b5061016d600435610440565b604080519115158252519081900360200190f35b34801561018d57600080fd5b50610102600160a060020a036004351660ff60243516610455565b3480156101b457600080fd5b506101256104a7565b3480156101c957600080fd5b506101026104ad565b3480156101de57600080fd5b50610125610519565b3480156101f357600080fd5b506101ff60043561051f565b60408051600160a060020a039092168252519081900360200190f35b34801561022757600080fd5b506101ff61053a565b34801561023c57600080fd5b50610251600160a060020a0360043516610549565b6040518082600481111561026157fe5b60ff16815260200191505060405180910390f35b34801561028157600080fd5b50610251600160a060020a036004351661055e565b3480156102a257600080fd5b5061010260043561057c565b3480156102ba57600080fd5b506101026004356105a4565b3480156102d257600080fd5b506101256106c6565b3480156102e757600080fd5b50610102600160a060020a03600435166106cc565b600054600160a060020a0316331461031357600080fd5b80151561031f57600080fd5b600355565b60046020526000908152604090205481565b6000803360009081526001602052604090205460ff16600481111561035757fe5b1461036157600080fd5b60008381526005602052604090205460ff161561037d57600080fd5b600382600481111561038b57fe5b14806103a2575060048260048111156103a057fe5b145b15156103ad57600080fd5b60008381526005602090815260408083208054600160ff19918216811790925533855292819052922080548593919216908360048111156103ea57fe5b021790555050600780546000908152600660209081526040808320805473ffffffffffffffffffffffffffffffffffffffff19163390811790915583526004909152902083905580546001810190915592915050565b60056020526000908152604090205460ff1681565b600054600160a060020a0316331461046c57600080fd5b600160a060020a03821660009081526001602081905260409091208054839260ff199091169083600481111561049e57fe5b02179055505050565b60035481565b600054600160a060020a031633146104c457600080fd5b60008054604051600160a060020a03909116917ff8df31144d9c2f0f6b59d69b8b98abd5459d07f2742c4df920b25aae33c6482091a26000805473ffffffffffffffffffffffffffffffffffffffff19169055565b60025481565b600660205260009081526040902054600160a060020a031681565b600054600160a060020a031681565b60016020526000908152604090205460ff1681565b600160a060020a031660009081526001602052604090205460ff1690565b600054600160a060020a0316331461059357600080fd5b80151561059f57600080fd5b600255565b60008054600160a060020a031633146105bc57600080fd5b50600081815260066020526040902054600160a060020a03166003600160a060020a03821660009081526001602052604090205460ff1660048111156105fe57fe5b148061063057506004600160a060020a03821660009081526001602052604090205460ff16600481111561062e57fe5b145b151561063b57600080fd5b6003600160a060020a03821660009081526001602052604090205460ff16600481111561066457fe5b141561069557600160a060020a0381166000908152600160208190526040909120805460ff191690911790556106c2565b600160a060020a0381166000908152600160208190526040909120805460029260ff19909116908361049e565b5050565b60075481565b600054600160a060020a031633146106e357600080fd5b6106ec816106ef565b50565b600160a060020a038116151561070457600080fd5b60008054604051600160a060020a03808516939216917f8be0079c531659141344cd1fd0a4f28419497f9722a3daafe3b4186f6b6457e091a36000805473ffffffffffffffffffffffffffffffffffffffff1916600160a060020a03929092169190911790555600a165627a7a72305820c70aeaa298adb55b3a5734ad9ed185dab983a7bb67cc97052ed3a9e7fad03c270029",
  "source": "pragma solidity ^0.4.24;\n\nimport 'openzeppelin-solidity/contracts/ownership/Ownable.sol';\n\ncontract RoleControl is Ownable {\n  //роли: никто, торгаш, покупатель + логика создателя контракта\n  enum Role {EMPTY, SELLER, BUYER, SELLER_REQUESTED, BUYER_REQUESTED}\n  mapping (address => Role) public roles;\n   \n  uint256 public pricePerToken;\n  uint256 public minPayement;\n  \n  mapping (address => uint256) public phoneByAddress;\n  mapping (uint256 => bool) public isPhoneRegistered;\n  mapping (uint256 => address) public requests;\n  uint256 public numberOfRequests;\n  \n\n  function sendRegRequest(uint256 _phone, Role _role) public returns (uint256)\n  {\n      require(roles[msg.sender] == Role.EMPTY);\n      require(isPhoneRegistered[_phone] == false);\n      require(_role == Role.SELLER_REQUESTED || _role == Role.BUYER_REQUESTED);\n      isPhoneRegistered[_phone] = true;\n      roles[msg.sender] = _role;\n      requests[numberOfRequests] = msg.sender;\n      phoneByAddress[msg.sender] = _phone;\n      numberOfRequests++;\n      return numberOfRequests - 1;\n  } \n\n  function applyRegRequest(uint256 num) onlyOwner public\n  {\n      address applicant = requests[num];\n      require(roles[applicant] == Role.SELLER_REQUESTED || roles[applicant] == Role.BUYER_REQUESTED);\n      if(roles[applicant] == Role.SELLER_REQUESTED)\n      {\n          roles[applicant]=Role.SELLER;\n      }\n      else\n      {\n       roles[applicant]=Role.BUYER;   \n      }\n  } \n\n  constructor() public {\n      pricePerToken = 1;\n      minPayement = 1;\n      numberOfRequests = 0;\n  }\n  \n  function setRole(address client, Role _role) public onlyOwner {\n      roles[client] =_role;\n  }\n  \n  function checkRole(address client) public view returns (Role) {\n      return roles[client];\n  }\n  \n  function changePrice(uint256 newPrice) public onlyOwner {\n      require(newPrice != 0);\n      pricePerToken = newPrice;\n  }\n  \n  function changeMinPayement(uint256 newMinPayement) public onlyOwner {\n      require(newMinPayement != 0);\n      minPayement = newMinPayement;\n  }\n}\n\n",
  "sourcePath": "/Users/work/workspace/blur/contracts/RoleControl.sol",
  "compiler": {
    "name": "solc",
    "version": "0.4.24+commit.e67f0147.Emscripten.clang"
  },
  "schemaVersion": "2.0.1",
  "updatedAt": "2018-08-22T19:17:34.487Z"
}